S01100004D7573696B44696E672E7372656388
S11300007FC10000AEC10000ACC10000AAC1000065
S1130010A8C10000A6C10000A4C10000A2C1000044
S1130020A0C100009EC100009CC100009AC1000054
S113003098C1000096C1000040C5000092C10000B4
S113004090C100008EC100008CC100008AC1000074
S11300500C94230B86C1000084C1000082C10000FF
S113006080C100007EC100007CC100007AC1000094
S113007078C1000076C1000074C1000072C10000A4
S113008070C100006EC100006CC100006AC10000B4
S113009068C1000066C1000064C1000062C10000C4
S11300A060C100005EC100005CC100005AC10000D4
S11300B058C1000056C1000054C1000052C10000E4
S11300C050C100004EC100004CC100004AC10000F4
S11300D048C1000046C1000044C1000042C1000004
S11300E040C100003EC100003CC100003AC1000014
S11300F038C1000036C1000034C1000032C1000024
S113010030C100002EC100002CC100002AC1000033
S113011028C1000026C1000024C1000022C1000043
S113012020C100001EC100001CC100001AC1000053
S113013018C1000016C1000014C1000012C1000063
S113014010C100000EC100000CC100000AC1000073
S113015008C1000006C1000004C1000002C1000083
S113016000C10000FEC00000FCC00000FAC0000096
S1130170F8C00000F6C00000F4C00000F2C00000A7
S1130180F0C00000EEC00000ECC00000EAC00000B7
S1130190E8C00000E6C00000E4C00000E2C00000C7
S11301A0E0C00000DEC00000DCC00000DAC00000D7
S11301B0D8C00000D6C00000D4C00000D2C00000E7
S11301C0D0C00000CEC00000CCC00000CAC00000F7
S11301D0C8C00000C6C00000C4C00000C2C0000007
S11301E0C0C00000BEC00000BCC00000BAC0000017
S11301F0B8C00000B6C00000B4C00000BCA23C3FC0
S113020090C48D3F0987D03F1054EF3F0000004059
S113021069042140EC25414033716040E1EC7E40AB
S1130220034D8E4002BB9C4012BEAA405753B840B7
S1130230D977C540BE28D2407563DE40D225EA4056
S11302401A6EF540871D0041F64505413A300A41D2
S11302506FDC0E41EA4A1341397C17411B711B4183
S1130260802A1F417EA9224153EF25415BFD28418D
S113027011D52B4104782E41D8E730414026334133
S1130280FA343541CD15374182CA3841E8543A41F0
S1130290CAB63B41F3F13C4126083E4123FB3E41B3
S11302A09FCC3F41477E4041BC114141958841412B
S11302B05CE441418F2642419F504241EF634241F9
S11302C0D4614241984B42417322424193E74141F8
S11302D0199C41411641414191D7404183604041BD
S11302E0D8DC3F41744D3F412AB33E41C70E3E41E5
S11302F00A613D41A9AA3C4151EC3B417C0B7F0B77
S113030011241FBECFEFCDBFDFE3DEBF00E00CBF83
S113031010E2A0E0B0E2E4EDF9E100E00BBF02C0BE
S113032007900D92AE31B107D9F726E2AEE1B0E203
S113033001C01D92AE3DB207E1F712E0CEEFD2E06C
S113034000E006C022970109FE010BBF0E94C10C08
S1130350CC3FD10780E00807A9F70E94950A0C94C6
S1130360D90C4ECE3D0A4F0A850AE00A5E0B010CF9
S1130370C60CAE0DB80EE40F31119D122914D3151D
S11303809A177D197C1B931DC41F0B226824D92640
S11303905C29F12B962E48310634CF36A1397A3CAC
S11303A0583F3A421E450148E34AC14D9A506C53A6
S11303B03556F458A65B4A5EDF606363D4653168E2
S11303C0786AA86CC06EBE70A172687412769E774B
S11303D00B79577A837B8D7C757D3B7EDD7E5B7FDD
S11303E0B67FEC7FFE7FEC7FB67F5B7FDD7E3B7E5E
S11303F0757D8D7C837B577A0B799E771276687432
S1130400A172BE70C06EA86C786A3168D4656363EB
S1130410DF604A5EA65BF45835566C539A50C14D62
S1130420E34A01481E453A42583F7A3CA139CF3647
S113043006344831962EF12B5C29D92668240B22E8
S1130440C41F931D7C1B7E199A17D31529149D1262
S11304503111E40FB80EAE0DC60C010C5E0BE00AB0
S1130460850A4F0AFF7F0000D77F4706617F8B0C08
S11304709C7EC712897DF818297C191F7C7A272550
S113048083781E2B4076FB30B573B936E170563C49
S1130490C96DCD416C6A1C47CE663F4CF162335145
S11304A0D65EF455815A815AF455D65E3351F162C1
S11304B03F4CCE661C476C6ACD41C96D563CE17019
S11304C0B936B573FB3040761E2B837827257C7AAA
S11304D0191F297CF818897DC7129C7E8B0C617FBB
S11304E04706D77F0000FE7FB9F9D77F75F3617F98
S11304F039ED9C7E08E7897DE7E0297CD9DA7C7AAE
S1130500E2D4837805CF407647C9B573AAC3E170B6
S113051033BEC96DE4B86C6AC1B3CE66CDAEF162C8
S11305200CAAD65E7FA5815A2AA1F5550F9D335199
S113053032993F4C94951C473792CD411F8F563CBE
S11305404C8CB936C089FB307D871E2B84852725CA
S1130550D883191F7782F8186481C7129F808B0C87
S1130560298047060000000180008001400040010E
S1130570C000C00120002001A000A00160006001B3
S1130580E000E001100010019000900150005001C3
S1130590D000D00130003001B000B0017000700113
S11305A0F000F001080008018800880148004801B3
S11305B0C800C80128002801A800A8016800680133
S11305C0E800E80118001801980098015800580143
S11305D0D800D80138003801B800B8017800780193
S11305E0F800F8013F922F921F930F93DF93CF935C
S11305F0DC01EB019927E4E6F3E000E810E0259143
S113060035914D915D91B503B0012C031001691F23
S1130610BC03790B300C611D791FDA03790B300CA4
S1130620611D791F699379936993799301501040FF
S113063031F7CF91DF910F911F912F903F901124AB
S113064008953F922F925F924F927F926F929F9262
S11306508F92BF92AF92DF92CF92FF92EF921F934D
S11306600F93DF93CF93FC0181E090E0A0E4B0E02E
S113067004E0809F6001909FD00C7C019F938F9336
S1130680EF01A09FC00DD11DB09FD00DFF93EF933C
S1130690BB24AA24992700811181159507956881A7
S11306A0798175956795A801061B170B460F571F8F
S11306B04193519320813181359527956A817B81BE
S11306C075956795A901261B370B460F571F419354
S11306D051930F01E4E6F4E0EA0DFB1D45915591B9
S11306E065917591F001950320010C031001491ED9
S11306F09C03590A300C411C591ED803590A300C6A
S1130700411C591EB70340012E033001891EBE034C
S1130710990A700C811C991EFA03990A700C811CA9
S1130720991E260C371C481C591C49925992B50332
S113073020012C031001491EBC03590A300C411C32
S1130740591EDA03590A300C411C591E9703400103
S11307500E033001891E9E03990A700C811C991E98
S1130760F803990A700C811C991E2618370848084A
S1130770590849925992AC0CBD1CB0FE8CCF04E0D0
S1130780A09FC00DD11DE00DF11DB09FD00DF00D47
S113079081E0E81AF90A09F07BCFEF91FF918F917C
S11307A09F91880F991FB695A795109609F060CF71
S11307B0CF91DF910F911F91EF90FF90CF90DF9039
S11307C0AF90BF908F909F906F907F904F905F906D
S11307D02F903F9008953F922F925F924F927F9275
S11307E06F929F928F92BF92AF921F930F93DF935A
S11307F0CF935C01EB01E4E6F5E0992700E410E017
S1130800A591B591AA0DBB1D2D913D914D915D9181
S1130810B30320012A031001491EBA03590A300CFC
S1130820411C591EBA03590A300C411C591ED503E8
S113083040014C033001891EDC03990A700C811CB1
S1130840991EDC03990A700C811C991E260C371C16
S1130850481C591C662477248824992421E030E01C
S11308604427552770E1220C331C441C551C661C7C
S1130870771C881C991C220C331C441C551C661CB8
S1130880771C881C991C2AF4620E731E841E951E04
S113089004C0621A730A840A950A220F331F441F84
S11308A0287F256097FC22507A95E9F6469537957E
S11308B027954695379527952993399301501040EC
S11308C009F09ECFCF91DF910F911F91AF90BF9010
S11308D08F909F906F907F904F905F902F903F905C
S11308E011240895AC019927D703F0014E03D001D8
S11308F0E91FDE03F90BB00DE11DF91FFC03F90B31
S1130900B00DE11DF91FCF0111240895A0E4B2E058
S113091090E312969C93129781E014968C9314970B
S113092011961C9211978C93E0E0F2E092838483F9
S11309301182808390968C93909798E091969C93E3
S1130940919711969C911197986011969C93119789
S113095090969C919097906890969C9380A398E32E
S113096091A391819860918390A1906890A3E0E015
S1130970F8E0808382E0868387EE93E086A397A3E2
S11309800895809120018F77809320018091300118
S11309908F77809330018091200187FDFCCF809177
S11309A0300187FDFCCF8091200180648093200179
S11309B0809130018064809330018091200186FD14
S11309C0FCCF8091300186FDFCCFE1E9E093220168
S11309D070E47093230165E26093200182E090E06B
S11309E0809324019093250150E85093260124E636
S11309F02093280142E04093290110922A0120E229
S1130A0031E220932C0130932D0110922E0120917C
S1130A102001206820932001E09332017093330178
S1130A2060933001809334019093350150933601E3
S1130A3084E2809338014093390110923A0180E2B4
S1130A4090E280933C0190933D0110923E0180918D
S1130A50300180688093300110921F2010921E2074
S1130A6081E08093CF22089580912101807C21F43C
S1130A708091030181FD11C080913101807C21F4BA
S1130A808091030182FD0FC080911F208823A1F073
S1130A9080911E2081110DC0089580911F208F5FC9
S1130AA080931F20E9CF80911E208F5F80931E20AA
S1130AB0EBCF82E08093CF2208951F920F920FB65E
S1130AC00F9211240F900FBE0F901F9018958EE077
S1130AD0E1ECF2E2DF01982F1D929A95E9F7E3EB3E
S1130AE0F2E2DF011D928A95E9F780E2EAE8F2E298
S1130AF0DF01982F1D929A95E9F7EAE6F2E2DF0109
S1130B00982F1D929A95E9F7EAE4F2E2DF011D922B
S1130B108A95E9F7109248221092492241E250E066
S1130B2060E070E085E292E230D7809125228A3A33
S1130B3009F45BC081E2E5E2F2E2DF011D928A95ED
S1130B40E9F781E498E1809326229093272287E9AC
S1130B509FE0809328229093292285E290E080935D
S1130B602A2290932B2282E290E080932C2290936D
S1130B702D2288E390E080932E2290932F2282E905
S1130B8090E0809330229093312283ED97E180931B
S1130B903422909335228EE29FE080933622909304
S1130BA0372284E790E080933822909339228DE8AD
S1130BB090E080933A2290933B2285ED90E08093DD
S1130BC03C2290933D2289E892E080933E229093C8
S1130BD03F228EE290E0809342229093432285EA62
S1130BE090E080934422909345221092AE2210927A
S1130BF0AD221092AC221092AB2210924622109297
S1130C0047220895E0914622F0914722309709F057
S1130C10199408952F923F924F925F926F927F9210
S1130C208F929F92AF92BF92CF92DF92EF92FF92F8
S1130C300F931F93CF93DF93CDB7DEB72597CDBF27
S1130C40DEBF8C839D836B01DC018D919C91119798
S1130C508093C1229093C222FB0180819181809371
S1130C60B3229093B42212968D919C911397809302
S1130C70C3229093C422828193818093B52290935E
S1130C80B6222681378184819581A0E0B0E0820F6D
S1130C90931FA11DB11DEC81FD8126813781448103
S1130CA0558160E070E0420F531F611D711D769500
S1130CB06795579547954093C5225093C622B6959C
S1130CC0A795979587958093B7229093B82220E0B3
S1130CD030E040E050E0BA0180E090E0DC01EC81DB
S1130CE0FD81E20FF31F0084F185E02D4E0F5F1F9D
S1130CF0611D711DF601E20FF31F0084F185E02DE3
S1130D008E0F9F1FA11DB11D2E5F3F4F283031054F
S1130D1031F722E076956795579547952A95D1F74F
S1130D204093C7225093C82232E0B695A795979571
S1130D3087953A95D1F78093B9229093BA2220E00F
S1130D4030E040E050E0BA0180E090E0DC01EC816A
S1130D50FD81E20FF31F0088F189E02D4E0F5F1F24
S1130D60611D711DF601E20FF31F0088F189E02D6A
S1130D708E0F9F1FA11DB11D2E5F3F4F20313105E6
S1130D8031F713E076956795579547951A95D1F7FE
S1130D904093C9225093CA2203E0B695A79597952C
S1130DA087950A95D1F78093BB229093BC2220E0CB
S1130DB030E040E050E0BA0180E090E0DC01EC81FA
S1130DC0FD81E20FF31F00A0F1A1E02D4E0F5F1F84
S1130DD0611D711DF601E20FF31F00A0F1A1E02DCA
S1130DE08E0F9F1FA11DB11D2E5F3F4F2032310575
S1130DF031F7E4E07695679557954795EA95D1F7ED
S1130E004093CB225093CC22F4E0B695A7959795C6
S1130E108795FA95D1F78093BD229093BE2220E066
S1130E2030E040E050E0BA0180E090E0DC01EC8189
S1130E30FD81E20FF31FE05CFF4F0190F081E02D94
S1130E404E0F5F1F611D711DF601E20FF31FE05C81
S1130E50FF4F0190F081E02D8E0F9F1FA11DB11D4A
S1130E602E5F3F4F2034310511F735E076956795B5
S1130E70579547953A95D1F74093CD225093CE227A
S1130E8045E0B695A795979587954A95D1F78093B0
S1130E90BF229093C022EC81FD81EE57FF4FE0808A
S1130EA0F180EC81FD81E058FF4F80819181E81A47
S1130EB0F90AE092B122F092B222F601EE57FF4F06
S1130EC000811181329780819181081B190B009355
S1130ED0AF221093B022AC81BD81F60140E060E006
S1130EE070E0CB012D913D91A190B190A20EB31E63
S1130EF0B694A7946A0D7B1D811D911D4F5F4330ED
S1130F0089F7F0914922F9838F2E912C23E030E068
S1130F1040E050E014D529015401AA0CBB1CF50192
S1130F20E657FD4D20833183612C712C60E070E025
S1130F30CB01D601A60DB71DEC81FD81E60DF71D91
S1130F4016962D913C91179746815781240F351F92
S1130F5036952795620F731F811D911D22E0620E45
S1130F60711C32E26316710421F721E130E040E0A4
S1130F7050E0E5D41901F501E659FD4D2083318394
S1130F80612C712C60E070E0CB01D601A60DB71D79
S1130F90EC81FD81E60DF71D98962D913C91999772
S1130FA040A551A5240F351F36952795620F731F51
S1130FB0811D911DA2E06A0E711CB6E56B167104C9
S1130FC021F72BE230E040E050E0B9D43901F501DB
S1130FD0E65BFD4D20833183E981E0934822FFEFF6
S1130FE08F1A9F0A2FE08222992480924922E1ECF1
S1130FF0F2E286E292E263EB72E240815181DC012B
S11310002D913D91CD012417350728F4421B530B34
S11310104083518302C010821182DB014D915C91A7
S1131020DC011C962D913C911D972417350730F453
S1131030421B530BDB014D935C9303C0DB011D92F8
S11310401C9232966E5F7F4FB2E2EF3CFB07A9F62B
S113105080914222909143228E159F0538F4E81A1C
S1131060F90AE092B122F092B22204C01092B122A5
S11310701092B222809144229091452280179107C8
S113108038F4081B190B0093AF221093B02204C04C
S11310901092AF221092B0223AE4C32E32E2D32E41
S11310A00AE612E22AE832E2812C912C540180E013
S11310B090E0DC0140E050E0BA01F601E190F190EB
S11310C06F018E0D9F1DA11DB11DF801E190F190DE
S11310D08F018E0C9F1CA11CB11CF901E190F190B1
S11310E09F014E0D5F1D611D711DFAE6CF16F2E2E0
S11310F0DF0619F714E0B694A794979487941A9589
S1131100D1F76A017B0104E0F694E794D794C7947D
S11311100A95D1F7BC01CD0124E096958795779582
S113112067952A95D1F71AD320E030E040EC5FE3CD
S11311307BD3E8D26615770518F01092AE2208C06A
S113114081E08093AE22809124228F5F80932422B9
S1131150C501B40103D320E030E040EC5FE364D385
S1131160D1D26215730550F48091AE2282608093CF
S1131170AE22809123228F5F80932322C701B60180
S1131180EDD220E030E040EC5FE34ED3BBD26415F7
S1131190750550F48091AE2284608093AE228091D4
S11311A022228F5F809322228091AE22882329F00D
S11311B0809121228F5F80932122809120228F5F52
S11311C080932022843108F456C02091AB22809170
S11311D022223EE1839FC0011124A3E02A9F800DB7
S11311E0911D112495958795959587958093AB22AC
S11311F0109222222091AC2280912322BEE18B9F67
S1131200C0011124E3E02E9F800D911D11249595BA
S11312108795959587958093AC22109223222091EF
S1131220AD2280912422FEE18F9FC001112433E07E
S1131230239F800D911D11249595879595958795EC
S11312408093AD22109224222091AA2280912122FF
S1131250AEE18A9FC0011124B3E02B9F800D911D44
S1131260112495958795959587958093AA22109238
S11312702122109220222596CDBFDEBFDF91CF918F
S11312801F910F91FF90EF90DF90CF90BF90AF90A0
S11312909F908F907F906F905F904F903F902F9092
S11312A00895892B79F4E0911520F0911620309758
S11312B009F0199580911720909118208093462267
S11312C0909347220895885F9B4FFC0110820895F4
S11312D00895885F9B4F21E0FC0120830895AF921D
S11312E0BF92CF92DF92EF92FF920F931F93CF930F
S11312F0DF9300D01F92CDB7DEB78C015C0188EF7D
S1131300A81A8BEFB80AF5018081833009F45CC018
S113131048F48130C1F0823009F0F0C0C80191D99D
S113132083E07EC0853009F4BFC008F47CC08630F9
S113133009F0E4C0B8016C577C4FC8014CDA78015D
S11313400CEF11E0B5C0D801AE57BC4F1D921C92F2
S11313501197A80140585C4F8FEF9FEFFA018083EB
S11313609183F0E2EF2EF1E2FF2E9801F7018191D3
S113137091917F016D917C9111976817790718F409
S11313808D939C931197FA01608171818617970759
S113139010F480839183B9017E5FE4E0880F991F84
S11313A0EA95E1F78F5F9F47FB01808391832E5F6E
S11313B03F4FF0E2EF16F2E2FF06C1F6B801C801B2
S11313C09E5F10D982E02CC0B8017D5FC80103DAAA
S11313D078010CEF11E06701FDEFDF1AF8012591A8
S11313E0359145915491F6016081718180E090E0DE
S11313F029833A834B835C83B1D129813A814B8120
S11314005C8112D27FD1F60160837183F2E0EF0E2A
S1131410F11C0C5F1F4F82E00C3F1807E1F684E0DB
S1131420F50180836DC0D801AA5FBB4F1D921C9249
S11314301197A8014C5F5B4F8FEF9FEFFA018083F8
S11314409183F0E2EF2EF0E2FF2E9801F7018191F3
S113145091917F016D917C9111976817790718F428
S11314608D939C931197FA01608171818617970778
S113147010F480839183B9017E5FE4E0880F991FA3
S1131480EA95E1F78F5F9F47FB01808391832E5F8D
S11314903F4FF0E2EF16F1E2FF06C1F6B801C801D2
S11314A09E5FA0D885E0BCCFC801CBD886E0B8CF7A
S11314B06701FCE7CF1AFCEFDF0AF80125913591AB
S11314C045915491F6016081718180E090E0298317
S11314D03A834B835C8342D129813A814B815C817D
S11314E0A3D110D1F60160837183F2E0EF0EF11CF9
S11314F00C5F1F4F82E00C3F1807D1F6F5011082F4
S1131500F50180812496CDBFDEBFDF91CF911F917D
S11315100F91FF90EF90DF90CF90BF90AF90089520
S11315208C579C4F08959D5F08958BEC80935200D7
S1131530809150008860809350008091510083FF17
S1131540FCCF84EC8093550080915000806180939F
S113155050008091510084FFFCCF88ED84BF84E06B
S113156080934000809150008E7F809350001092B1
S1131570D1221092D2221092D3221092D42281E04E
S11315808093400882E0809346088FEF9CE7809325
S113159066089093670880E88093000198DAB6D9CA
S11315A01092D0221092CF228091A2008760809363
S11315B0A200789480E090E074DE13E08091CF2262
S11315C0813009F451DA8091D02281FF02C08D7FED
S11315D006C080FF07C016DB8091D0228E7F8093E7
S11315E0D022ECCF9091CF22911107C082FF1CC072
S11315F0C8D98091D0228B7FF2CF923031F485ED1F
S113160092E267DE1093CF22D9CF933069F485ED4F
S113161092E265DE8111D2CF8091D02288608093DE
S1131620D0221092CF22CACF83FFC8CF85ED92E299
S11316307ADFEC0185ED92E273DFBE01EBDA809193
S1131640D022877FCCCF1F920F920FB60F92112416
S11316508F939F93AF93BF9380911C20815080936D
S11316601C20811108C08091D02281608093D022F7
S113167080E180931C2080911B20815080931B204B
S1131680811108C08091D02282608093D0228AE0A8
S113169080931B208091192090911A2001978093A8
S11316A0192090931A20892B59F48091D0228460B8
S11316B08093D02284E690E08093192090931A209E
S11316C08091D1229091D222A091D322B091D422A0
S11316D00196A11DB11D8093D1229093D222A09393
S11316E0D322B093D422BF91AF919F918F910F9049
S11316F00FBE0F901F90189585ED92E2E4CD85ED15
S113170092E2E6CD70D088F09F5790F0B92F9927D8
S1131710B751A0F0D1F0660F771F881F991F1AF0F8
S1131720BA95C9F712C0B13081F077D0B1E008950D
S113173074C0672F782F8827B85F39F0B93FCCF38E
S1131740869577956795B395D9F73EF490958095EE
S1131750709561957F4F8F4F9F4F0895E89409C00E
S113176097FB3EF490958095709561957F4F8F4FD0
S11317709F4F9923A9F0F92F96E9BB279395F695E6
S1131780879577956795B795F111F8CFFAF4BB0F64
S113179011F460FF1BC06F5F7F4F8F4F9F4F16C0C8
S11317A0882311F096E911C0772321F09EE8872F52
S11317B0762F05C0662371F096E8862F70E060E00E
S11317C02AF09A95660F771F881FDAF7880F969587
S11317D0879597F9089557FD9058440F551F59F070
S11317E05F3F71F04795880F97FB991F61F09F3F0A
S11317F079F087950895121613061406551FF2CF33
S11318004695F1DF08C0161617061806991FF1CF82
S113181086957105610508940895E894BB276627A9
S11318207727CB0197F908950BD078C069D028F0B9
S11318306ED018F0952309F05AC05FC01124EECF82
S1131840CADFA0F3959FD1F3950F50E0551F629F17
S1131850F001729FBB27F00DB11D639FAA27F00D05
S1131860B11DAA1F649F6627B00DA11D661F829F2C
S11318702227B00DA11D621F739FB00DA11D621F11
S1131880839FA00D611D221F749F3327A00D611D2E
S1131890231F849F600D211D822F762F6A2F112410
S11318A09F5750408AF0E1F088234AF0EE0FFF1F63
S11318B0BB1F661F771F881F91505040A9F79E3F9A
S11318C0510570F014C0AACF5F3FECF3983EDCF3EF
S11318D0869577956795B795F795E7959F5FC1F7D7
S11318E0FE2B880F911D9695879597F9089597F982
S11318F09F6780E870E060E008959FEF80EC0895B2
S113190000240A94161617061806090608950024DA
S11319100A9412161306140605060895092E039454
S1131920000C11F4882352F0BB0F40F4BF2B11F4C8
S113193060FF04C06F5F7F4F8F4F9F4F0895A1E2F8
S11319401A2EAA1BBB1BFD010DC0AA1FBB1FEE1F35
S1131950FF1FA217B307E407F50720F0A21BB30B80
S1131960E40BF50B661F771F881F991F1A9469F7FC
S113197060957095809590959B01AC01BD01CF0158
S113198008950790F691E02D1994E0ECF1E0A78515
S1131990A7FDFDCFA485A860A4876050704F00C048
S11319A0FB01DC0102C001900D9241505040D8F778
S11319B0089513E0CEEFD2E000E005C022970109BC
S11319C0FE010BBFDEDFC030D10780E00807B1F7AE
S10719D0F894FFCFB5
S11319D449444C45000000000000000000000000E1
S11119E400000000000000000064000A100073
S9030000FC
